:020000040800F2
:10000000D8960020E90200080D270008E92300081F
:100010008D250008CB050008612F000800000000B6
:10002000000000000000000000000000290200089D
:10003000E50B00080000000085020008DD2700082D
:100040000303000803030008030300080303000878
:100050000303000803030008030300080303000868
:10006000030300080303000803030008D105000888
:1000700003030008E105000803030008F105000878
:100080000303000803030008030300080303000838
:100090000303000803030008030300080303000828
:1000A00003030008DD280008030300080303000819
:1000B0000303000803030008030300080303000808
:1000C00003030008030300080303000803030008F8
:1000D00003030008030300080303000803030008E8
:1000E00003030008030300080303000803030008D8
:1000F00003030008030300080303000801060008C7
:1001000003030008030300080303000803030008B7
:10011000D5290008E52900080303000803030008A7
:100120000303000803030008030300080303000897
:100130000303000803030008030300080303000887
:100140000303000803030008030300080303000877
:100150000303000803030008030300080303000867
:100160000303000803030008030300080303000857
:100170000303000803030008030300080000000055
:10018000030300080303000800F002F800F03CF845
:100190000AA090E8000C82448344AAF10107DA45E2
:1001A00001D100F031F8AFF2090EBAE80F0013F0F8
:1001B000010F18BFFB1A43F0010318474C4500001C
:1001C0006C450000103A24BF78C878C1FAD85207AD
:1001D00024BF30C830C144BF04680C6070470000C1
:1001E0000023002400250026103A28BF78C1FBD840
:1001F000520728BF30C148BF0B6070471FB504F0DD
:10020000C4F91FBD10B510BD00F0A6F91146FFF7E7
:10021000F5FF03F07FF800F0C4F903B4FFF7F2FF35
:1002200003BC00F0CBF900002C4B19680868B0E85B
:10023000F04F80F30988BFF36F8F4FF0000080F319
:10024000118870470000000008480068006880F3CB
:1002500008884FF0000080F3148862B661B6BFF3DF
:100260004F8FBFF36F8F00DF00BF00BF08ED00E0CE
:10027000DFF80C00016841F470010160704700BFB5
:1002800088ED00E0EFF30980BFF36F8F134B1A681E
:100290001EF0100F08BF20ED108A20E9F04F10600B
:1002A00009B44FF0500080F31188BFF34F8FBFF3B4
:1002B0006F8F03F0ADFD4FF0000080F3118809BC93
:1002C00019680868B0E8F04F1EF0100F08BFB0ECD6
:1002D000108A80F30988BFF36F8F704718000020E1
:1002E000EFF3058070470000094880470948004740
:1002F000FEE7FEE7FEE7FEE7FEE7FEE7FEE7FEE7D6
:10030000FEE7FEE704480549054A064B7047000032
:10031000C928000889010008D8900020D89600203C
:10032000D8920020D892002053EA020C00F0698095
:100330002DE9F04B4FF00006002B1FBFB3FA83F5F9
:1003400003FA05F424FA05F65E4012BF1643B2FA2A
:1003500082F502FA05F4C5F120051EBF22FA05FC5C
:1003600044EA0C04203556EA044C4FEA144418BF02
:10037000641C4FF000084FF00009904271EB030C31
:1003800039D3002919BFB1FA81F701FA07F6B0FA9B
:1003900080F700FA07F6C7F120071EBF20FA07FC16
:1003A00046EA0C062037B6FBF4FCA7EB0507103F26
:1003B00007F01F0BCBF120060CFA0BFB2CFA06F60C
:1003C00044BFB3460026202FA4BF5E464FF0000B6B
:1003D0005BEA060C08BF4FF0010B19EB0B09ABFBF6
:1003E000027C48EB0608C01B06FB02CC0BFB03CCCF
:1003F00071EB0C01C1E70B46024641464846BDE899
:10040000F08B13B54FF000004FF00001AFF3008008
:10041000BDE81C407047032A40F2308010F0030C06
:1004200000F0158011F8013BBCF1020F624498BF47
:1004300011F801CB00F8013B38BF11F8013BA2F1E4
:10044000040298BF00F801CB38BF00F8013B11F05F
:10045000030300F02580083AC0F0088051F8043BFF
:10046000083A51F804CBA0E80810F5E7121D5CBF6C
:1004700051F8043B40F8043BAFF30080D20724BF9F
:1004800011F8013B11F801CB48BF11F8012B24BF33
:1004900000F8013B00F801CB48BF00F8012B704782
:1004A00010B5203AC0F00B80B1E81850203AA0E80F
:1004B0001850B1E81850A0E81850BFF4F5AF5FEA43
:1004C000027C24BFB1E81850A0E8185044BF18C9F6
:1004D00018C0BDE810405FEA827C24BF51F8043B9D
:1004E00040F8043B08BF7047D20728BF31F8023BF1
:1004F00048BF11F8012B28BF20F8023B48BF00F885
:10050000012B70474FF0000200B513469446964603
:10051000203922BFA0E80C50A0E80C50B1F1200116
:10052000BFF4F7AF090728BFA0E80C5048BF0CC0C4
:100530005DF804EB890028BF40F8042B08BF704722
:1005400048BF20F8022B11F0804F18BF00F8012B94
:100550007047704770477047754600F02BF8AE46FD
:1005600005006946534620F00700854618B020B5BF
:10057000FFF7C8FEBDE820404FF000064FF000072F
:100580004FF000084FF0000B21F00701AC46ACE83B
:10059000C009ACE8C009ACE8C009ACE8C0098D46A8
:1005A000704710B50446AFF300802046BDE8104008
:1005B000FFF733BE004870477890002001491820AB
:1005C000ABBEFEE726000200704700BFFEE700005A
:1005D00010B5024800F086FB10BD0000C4040020E6
:1005E00010B5024800F07EFB10BD0000040400209E
:1005F00010B5024800F076FB10BD00006404002036
:1006000010B5024800F06EFB10BD0000240500206C
:10061000F0B50446059D0026A068802803D140005F
:1006200060650120F0BDE648E063E6486064E06B89
:1006300008B1606C18B9402060650120F2E700BF86
:1006400094F83400012801D10220EBE7012084F85E
:10065000340000BF94F83500012875D1022084F8D9
:100660003500002060652068006840F4802027681D
:1006700038602068036120684560A068402804D184
:10068000206882602068C16003E020688160206883
:10069000C260CD4F2068B8425DD9CC4F2068B842C7
:1006A00001D1202053E0C84F483F2068B84201D113
:1006B00020204CE0C54F60372068B84201D120208F
:1006C00045E0C14F18372068B84201D120203EE0F4
:1006D000BE4F18372068B84201D1C01437E0BA4F76
:1006E000303F2068B84201D1C01430E0B74F7837AE
:1006F0002068B84201D1C01429E0B34F30372068D8
:10070000B84201D1C01422E0B04F30372068B8425F
:1007100002D14FF400101AE0AB4F183F2068B842E6
:1007200002D14FF4001012E0A84F90372068B84271
:1007300002D14FF400100AE0A34F48372068B842B6
:1007400003D14FF4001002E02CE14FF000609E4F07
:100750004C3F38601FE19D4FA8372068B8425CD9F4
:100760009A4F2068B84201D1202052E0964F483F6E
:100770002068B84201D120204BE0944F60372068B8
:10078000B84201D1202044E08F4F18372068B8428A
:1007900001D120203DE08D4F18372068B84201D1AB
:1007A000C01436E0884F303F2068B84201D1C014F1
:1007B0002FE0864F78372068B84201D1C01428E076
:1007C000814F30372068B84201D1C01421E07F4FFB
:1007D00030372068B84202D14FF4001019E07A4F48
:1007E000183F2068B84202D14FF4001011E0774F53
:1007F00090372068B84202D14FF4001009E0724FE0
:1008000048372068B84202D14FF4001001E04FF0A1
:1008100000606D4F503F3860BDE06C4F4837206836
:10082000B8425CD9694F2068B84201D1202052E01B
:10083000654F483F2068B84201D120204BE0634F0C
:1008400060372068B84201D1202044E05E4F18375D
:100850002068B84201D120203DE05C4F1837206865
:10086000B84201D1C01436E0574F303F2068B8423B
:1008700001D1C0142FE0554F78372068B84201D11C
:10088000C01428E0504F30372068B84201D1C0145E
:1008900021E04E4F30372068B84202D14FF40010AB
:1008A00019E0494F183F2068B84202D14FF40010B8
:1008B00011E0464F90372068B84202D14FF4001043
:1008C00009E0414F48372068B84202D14FF4001088
:1008D00001E04FF000603D4F103FF8605BE03B4FA0
:1008E0002068B84201D1202052E0374F483F2068AD
:1008F000B84201D120204BE0344F60372068B84225
:1009000001D1202044E0304F18372068B84201D18F
:1009100020203DE02D4F18372068B84201D1C01487
:1009200036E0294F303F2068B84201D1C0142FE093
:10093000264F78372068B84201D1C01428E0224FF2
:1009400030372068B84201D1C01421E01F4F303742
:100950002068B84202D14FF4001019E01A4F183F36
:100960002068B84202D14FF4001011E0174F9037C1
:100970002068B84202D14FF4001009E0124F483706
:100980002068B84202D14FF4001001E04FF000603F
:100990000E4F103FB8602068006840F001002768E3
:1009A000386005E000BF002084F8340000BF022654
:1009B00000BF002084F8340000BF304632E600005B
:1009C000E12F0008DD30000858640240106002404A
:1009D0000146087810381823B0FBF3F20848805C11
:1009E000C865032A05D908686FF30900001D8865EA
:1009F00003E008686FF309008865886D70470000A0
:100A0000CC450008014600208A6A8B69CBB932B117
:100A1000012A0DD0022A03D0032A10D10EE000BF14
:100A2000CB6A03F08073B3F1807F00D1012007E02F
:100A3000CB6AB3F1C07F00D1012001E000E000BF2C
:100A400034E08B69B3F5005F1AD132B1012A07D0C7
:100A5000022A03D0032A11D10AE000BF01200EE0D0
:100A6000CB6A03F08073B3F1807F00D1012006E0F0
:100A7000CB6AB3F1C07F00D1012000E000BF15E0D8
:100A800032B1012A05D0022A04D0032A0CD103E096
:100A900000BF00BF012008E0CB6A03F08073B3F110
:100AA000807F00D1012000E000BF00BF7047000040
:100AB00010B504460848007868B92068006800F05E
:100AC0001000102807D12068C06800F0100010B195
:100AD000204602F075FF10BD9800002008B50E48B2
:100AE0000078B8B901200C4908700C4840680090A3
:100AF0000B4900980968884204D20A480068401CE3
:100B00000849086005484068054908600020024916
:100B1000087000BF08BD0000E0000020001000E0E9
:100B2000D0000020CC00002010B52DED028B82B04B
:100B300004460E484068019020680199081A00EEAA
:100B4000100AF8EE400A0A4890ED000AB8EE400A92
:100B500080EE801AB0EE418A01982060FFF7BEFF58
:100B6000B0EE480A02B0BDEC028B10BD001000E0F0
:100B7000C000002010B504461348006840F08070A3
:100B8000114908600020114948600846006840F09B
:100B9000010008600E4860430E490860084600687E
:100BA0004FF47A71B0FBF1F00B4908600948006816
:100BB0000749B0FBF1F009490860002008490860C6
:100BC000FFF78CFF10BD0000FCED00E0001000E01E
:100BD00040420F00C0000020C4000020C8000020D8
:100BE000CC000020704772B600BFFEE730B5034668
:100BF00005E013F8010B80EA02040448025D081EB8
:100C0000A1F10101F5D1104630BD0000ED4500080D
:100C100070B50446A56D00F0F5FA064694F8350067
:100C2000022808D08020606500BF002084F83400CE
:100C300000BF012070BD2068006820F01600216808
:100C400008602068406920F0800021684861206CBD
:100C500008B9A06C28B12068006820F0080021685D
:100C600008602068006820F001002168086010E03A
:100C700000F0C8FA801B05280BD9202060650320EE
:100C800084F8350000BF002084F8340000BF032042
:100C9000D0E72068006800F001000028E8D194F84F
:100CA0005C103F208840A860012084F8350000BF18
:100CB000002084F8340000BF00BFBBE7014691F874
:100CC0003500022803D080204865012070470520A8
:100CD00081F835000868006820F001000A6810609B
:100CE0000020F3E7F8B50446002000908C48006827
:100CF0004FF41651B0FBF1F7A56D2E6894F85C1017
:100D000008208840304098B12068006800F0040056
:100D100070B12068006820F004002168086094F831
:100D20005C1008208840A860606D40F0010060659C
:100D300094F85C1001208840304068B12068406918
:100D400000F0800040B194F85C1001208840A86059
:100D5000606D40F00200606594F85C1004208840EB
:100D6000304068B12068006800F0020040B194F89B
:100D70005C1004208840A860606D40F0040060654D
:100D800094F85C1010208840304078B320680068E8
:100D900000F0080050B394F85C1010208840A86060
:100DA0002068006800F4802080B12068006800F4AA
:100DB000002028B9206CC8B12046216C884715E076
:100DC000A06C98B12046A16C88470FE020680068AD
:100DD00000F4807028B92068006820F008002168BD
:100DE0000860206C10B12046216C884794F85C1094
:100DF000202088403040002865D02068006800F03E
:100E0000100000285FD094F85C1020208840A86073
:100E100094F83500052828D12068006820F01600D5
:100E2000216808602068406920F0800021684861DE
:100E3000206C08B9A06C28B12068006820F0080078
:100E40002168086094F85C103F208840A860012069
:100E500084F8350000BF002084F8340000BF206D06
:100E600010B12046216D8847F8BD2068006800F465
:100E7000802080B12068006800F4002028B9606CF0
:100E800010B12046616C88471DE0E06BD8B1204668
:100E9000E16B884717E02068006800F4807068B94B
:100EA0002068006820F0100021680860012084F8A4
:100EB000350000BF002084F8340000BFE06B10B1A3
:100EC0002046E16B8847606D38B3606D00F001002B
:100ED000F0B1052084F835002068006820F001009A
:100EE0002168086000BF0098401C0090B84200D9FB
:100EF00005E02068006800F001000028F3D100BF81
:100F0000012084F8350000BF002084F8340000BFC1
:100F1000E06C10B12046E16C884700BFA4E70000F8
:100F2000140000202DE9F0410446002500F06AF984
:100F3000074614B90120BDE8F081606A00B100BF26
:100F4000022084F8350000BF002084F8340000BF80
:100F50002068006820F00100216808600AE000F0C5
:100F600051F9C01B052805D920206065032084F8AD
:100F70003500E0E72068006800F001000028EED1AD
:100F80002068056821480540D4E901010843E1686B
:100F900008432169084361690843A1690843E1697D
:100FA0000843216A08430543606A042803D1D4E951
:100FB0000B0108430543206805602068456925F05A
:100FC0000705606A0543606A04280DD1A06A0543DD
:100FD000E06A48B12046FFF715FD28B14020606562
:100FE000012084F83500A6E7206845612046FFF718
:100FF000EFFC064694F85C103F208840B06000206B
:101000006065012084F83500002094E73F8010F0EF
:10101000F8B502460B460025002400200021D6E04A
:10102000012606FA01F51E6806EA0504AC4274D1F1
:101030001E7906F00306012E04D01E7906F0030681
:10104000022E13D190684F000326BE40B0434F00DC
:10105000DE68BE4030439060506801268E40B04349
:101060001E79C6F300168E40304350601E7906F09C
:101070000306032E09D0D0684F000326BE40B043BC
:101080004F009E68BE403043D0601E7906F00306D4
:10109000022E13D1CF0802F1200656F827004E0782
:1010A000F70E0F26BE40B0434F07FF0E1E69BE402D
:1010B0003043CF0802F1200646F8270010684F00A1
:1010C0000326BE40B0431E7906F003064F00BE4023
:1010D000304310605E6806F44036002E76D000BFC4
:1010E000002600963C4E366846F480463A4F3E60F5
:1010F0003E46366806F48046009600BF00BF374E75
:101100008F0856F827008E07370F0F26BE40B043D2
:10111000334EB24202D1002624E057E0314EB242B3
:1011200001D101261EE0304EB24201D1022619E063
:101130002E4EB24201D1032614E02D4EB24201D10F
:1011400004260FE02B4EB24201D105260AE02A4EBA
:10115000B24201D1062605E0284EB24201D107264F
:1011600000E008268F073F0FBE4030431B4E8F081C
:1011700046F82700224E3068A0435E6806F48016C9
:1011800006B120431E4E3060361D3068A0435E68B5
:1011900006F4001606B12043194E361D3060184E75
:1011A000361F3068A0435E6806F4003606B120435F
:1011B000134E361F3060361F3068A0435E6806F459
:1011C000803606B120430E4E083E3060491C10297F
:1011D000FFF426AFF8BD0000443802400838014053
:1011E000000002400004024000080240000C0240DF
:1011F000001002400014024000180240001C02408F
:10120000083C0140014800687047000008000020C9
:101210000348006803490978084401490860704799
:10122000080000201000002010B50D48006840F4B0
:1012300000700B4908600846006840F48060086050
:101240000846006840F480700860032000F0D6F87B
:101250000F2000F007F800F055F8002010BD000046
:10126000003C0240F0B587B004460026002700BFCE
:10127000002000901E48006840F001001C490860F2
:101280000846006800F00100009000BF00BF01A9FF
:1012900002A800F089F900F0BFF946001548B6FB36
:1012A000F0F0471E14481549086040F2E731134832
:1012B000C1604760002101618160816100F064FCD0
:1012C000054695B90D4800F093FC05466DB9192007
:1012D00000F042F8102C07D200222146192000F01D
:1012E0004FF80748046000E00125284607B0F0BD2C
:1012F0004438024040420F000000014084050020B5
:101300000C00002008B500BF0020009011480068C4
:1013100040F480400F4908600846006800F48040AF
:10132000009000BF00BF00BF00200090081F0068B1
:1013300040F08050091F08600846006800F08050A7
:10134000009000BF00BF00220F21901E00F018F88F
:1013500008BD0000443802400146084600280DDB65
:1013600000BF00BF00F01F0301229A4043099B0009
:1013700003F1E023C3F8002100BF00BF00BF7047A6
:101380002DE9F05F80460D461646002701F002FE6B
:10139000074639462A46334601F00700C0F1070ADE
:1013A000BAF1040F02D94FF0040A01E0C0F1070AB4
:1013B000D14600F1040ABAF1070F02D24FF0000A39
:1013C00001E0A0F1030AD4464FF0010A0AFA09FA33
:1013D000AAF1010A0AEA020A0AFA0CFA4FF0010B12
:1013E0000BFA0CFBABF1010B0BEA030B4AEA0B0403
:1013F0002146404601F0D6FDBDE8F09F00BF00F059
:101400000702064B19684FF6FF031940044B0B43C4
:1014100043EA0221014B196000BF70470CED00E068
:101420000000FA0570B504460D460CB9012070BDE8
:101430005848006800F00700A84209D255490D70CD
:101440000846006800F00700A84201D00120EEE73E
:10145000207800F0020002281DD1207800F004005E
:10146000042805D14C48006840F4E0504A4908601F
:10147000207800F00800082805D14748006840F4AB
:101480006040454908604448006820F0F000A168C9
:10149000084341490860207800F00100A8B3606863
:1014A000012807D13C4808380068C0F34040B8B96B
:1014B0000120BCE76068022802D06068032807D1D9
:1014C000354808380068C0F3406048B90120AEE7ED
:1014D000314808380068C0F3400008B90120A6E789
:1014E0002D48006820F00300616808432A4908601D
:1014F000FFF788FE064609E0FFF784FE801B41F2F5
:101500008831884202D9032091E707E02248006829
:1015100000F00C006168B0EB810FEDD11D48006850
:1015200000F00700A84209D91A490D700846006862
:1015300000F00700A84201D0012078E7207800F0F1
:101540000400042807D11448006820F4E050E16842
:10155000084311490860207800F00800082808D1E5
:101560000D48006820F46040216940EAC1000A4942
:10157000086000F061F808490968C1F30311074ADF
:10158000515CC8400649086006480068FFF76AFEDB
:1015900000204CE7003C024008380240D4450008D7
:1015A000140000200C0000200F2202600D4A126877
:1015B00002F0030242600B4A126802F0F0028260FD
:1015C000084A126802F4E052C260064A126802F445
:1015D0006042D2080261044A126802F007020A60FF
:1015E0007047000008380240003C02400148006893
:1015F000704700001400002000B5FFF7F7FF044912
:101600000968C1F38221034A515CC84000BD000053
:1016100008380240E445000800B5FFF7E7FF044939
:101620000968C1F34231034A515CC84000BD000063
:1016300008380240E44500082DE9F0470024002561
:101640000026A1462548006800F00C0020B10428BF
:1016500005D008283AD105E0DFF8849039E0DFF8BA
:10166000849036E01D48001F006800F03F041B48CE
:10167000001F006800F4800078B11A481749091F5C
:101680000968C1F38811A0FB0170014622460023BE
:101690003846FEF749FE05460EE011480F49091F7E
:1016A0000968C1F38811A0FB01700146224600239E
:1016B0003846FEF739FE05460848001F0068C0F3AB
:1016C0000140401C4600B5FBF6F902E0DFF810903F
:1016D00000BF00BF4846BDE8F08700000838024060
:1016E0000024F400001BB700F8B504460CB9012033
:1016F000F8BD207800F00100002874D0F948006897
:1017000000F00C0004280DD0F648006800F00C0032
:10171000082813D1F348001F006800F48000B0F5DA
:10172000800F0BD1EF4808380068C0F34040002814
:1017300059D06068002856D10120D9E700BF606801
:10174000B0F5803F08D1E7480838006840F48030A1
:10175000E449083908601EE06068B0F5A02F0DD19B
:10176000E0480838006840F48020DE490839086005
:101770000846006840F4803008600CE0D94808381A
:10178000006820F48030D7490839086008460068AE
:1017900020F48020086000BF606890B1FFF732FD40
:1017A000054606E0FFF72EFD401B642801D9032003
:1017B0009EE7CC4808380068C0F340400028F1D0CC
:1017C00011E0FFF71FFD054606E0FFF71BFD401B7C
:1017D000642801D903208BE7C24808380068C0F3A9
:1017E00040400028F1D1207800F0020002285FD1AB
:1017F000BC48006800F00C0058B1BA48006800F01E
:101800000C0008281CD1B748001F006800F48000B5
:10181000B0B9B44808380068C0F3400020B1E068AF
:10182000012801D0012063E7AE480838006820F0A5
:10183000F800216940EAC100AA490839086037E088
:10184000E06800B30120A8490860FFF7DBFC05460B
:1018500006E0FFF7D7FC401B022801D9032047E729
:10186000A04808380068C0F340000028F1D09D4827
:101870000838006820F0F800216940EAC100994961
:101880000839086014E0002097490860FFF7BAFCA7
:10189000054606E0FFF7B6FC401B022801D90320ED
:1018A00026E7904808380068C0F340000028F1D1CE
:1018B000207800F0080008282CD16069A8B1012028
:1018C0008A490860FFF79EFC054606E0FFF79AFC90
:1018D000401B022801D903200AE782486C300068C7
:1018E000C0F340000028F1D014E000207F490860D8
:1018F000FFF788FC054606E0FFF784FC401B022842
:1019000001D90320F4E677486C300068C0F340004A
:101910000028F1D1207800F00400042870D10027BD
:1019200070483830006800F0805090B900BF002047
:1019300000906C483830006840F080506949383178
:1019400008600846006800F08050009000BF00BFAB
:1019500001276748006800F48070B0B964480068E7
:1019600040F4807062490860FFF74CFC054606E0D1
:10197000FFF748FC401B022801D90320B8E65C4869
:10198000006800F480700028F2D000BFA068012831
:1019900008D154486830006840F00100514968316E
:1019A00008601DE0A06805280DD14E486830006829
:1019B00040F004004B49683108600846006840F078
:1019C000010008600CE047486830006820F0010022
:1019D0004449683108600846006820F00400086047
:1019E00000BFA068A8B1FFF70DFC054609E0FFF7AE
:1019F00009FC401B41F28831884202D9032077E676
:101A000026E0384868300068C0F340000028EED077
:101A100013E0FFF7F7FB054608E0FFF7F3FB401B79
:101A200041F28831884201D9032061E62D486830AF
:101A30000068C0F340000028EFD1012F07D12948EA
:101A40003830006820F0805026493831086000BFE7
:101A5000A069002845D02348006800F00C00082841
:101A60005DD0A069022845D100201F490866FFF714
:101A7000C9FB054606E0FFF7C5FB401B022801D95C
:101A8000032035E6174808380068C0F34060002896
:101A9000F1D1D4E907010843616A40EA81110122CA
:101AA000A06AC2EB500041EA00412C20005D41EAEF
:101AB00000600C49091F086001200B490866FFF708
:101AC000A1FB054606E0FFF79DFB401B022801D95C
:101AD00003200DE6034808380068C0F34060002882
:101AE000F1D049E00838024000004742800E4742EA
:101AF00000700040002021490866FFF783FB05467F
:101B000006E0FFF77FFB401B022801D90320EFE529
:101B10001B480068C0F340600028F2D12CE0A069A7
:101B2000012800D1E4E51648001D0668A0690128D7
:101B300020D006F48001E06981421BD106F03F010C
:101B4000206A814216D147F6C0703040616AB0EB1E
:101B5000811F0FD106F440310122A06AC2EB500070
:101B6000B1EB004F06D106F070612C20005DB1EBA7
:101B7000006F01D00120BBE50020B9E5000047421D
:101B8000003802407047704710B504460CB9012078
:101B900010BD94F83D0028B9002084F83C00204690
:101BA00000F025F8022084F83D00211D206800F097
:101BB0009DFE012084F8460000BF84F83E0001210C
:101BC0003F200155402001554120015500BF00BF75
:101BD000012084F84200432001554420015545204E
:101BE000015500BF012084F83D000020D0E7704778
:101BF000014691F83D00012801D0012070470220E4
:101C000081F83D000868C06840F001000B68D860AA
:101C10001A4B086898421BD00868B0F1804F17D063
:101C2000174B0868984213D0164B086898420FD09B
:101C3000154B086898420BD0144B0868984207D09F
:101C4000134B0868984203D0124B086898420CD195
:101C50000868806800F00702062A0CD0086800684F
:101C600040F001000B68186005E00868006840F06B
:101C700001000B6818600020C0E700000000014070
:101C80000004004000080040000C00400004014037
:101C90000040014000180040704770B504462068BD
:101CA000C5682068066906F00200022819D105F00F
:101CB0000200022815D1401F216808610120207709
:101CC0002068806900F0030018B12046FFF7E4FFA8
:101CD00005E0204600F097F8204600F095F8002037
:101CE000207706F00400042819D105F00400042828
:101CF00015D1C043216808610220207720688069DF
:101D000000F4407018B12046FFF7C6FF05E02046FA
:101D100000F079F8204600F077F80020207706F0F0
:101D20000800082819D105F00800082815D1C0437B
:101D300021680861042020772068C06900F0030052
:101D400018B12046FFF7A8FF05E0204600F05BF839
:101D5000204600F059F80020207706F010001028E7
:101D600019D105F01000102815D1C0432168086171
:101D7000082020772068C06900F4407018B1204620
:101D8000FFF78AFF05E0204600F03DF8204600F00E
:101D90003BF80020207706F0010048B105F0010073
:101DA00030B16FF0010021680861204600F02EF884
:101DB00006F08000802809D105F08000802805D138
:101DC000C043216808612046FFF7DCFE06F04000B2
:101DD000402809D105F04000402805D1C0432168C2
:101DE0000861204600F01EF806F02000202809D1E6
:101DF00005F02000202805D1C04321680861204655
:101E0000FFF7C1FE70BD70477047000010B5044673
:101E100003492068884201D1FFF7FAF910BD00009C
:101E20000000014070477047704700002DE9F84FEF
:101E30000446206805682068C668206847694FF036
:101E40000009CA4605F00F09B9F1000F0AD105F0E3
:101E5000200038B106F0200020B1204600F01CFE22
:101E6000BDE8F88FB9F1000F7CD007F0010018B978
:101E700006F49070002875D005F0010030B106F42A
:101E8000807018B1606C40F00100606405F00400DF
:101E900030B107F0010018B1606C40F002006064DE
:101EA00005F0020030B107F0010018B1606C40F09D
:101EB0000400606405F0080048B106F0200010B985
:101EC00007F0010018B1606C40F008006064606CBD
:101ED000002846D005F0200028B106F0200010B1FF
:101EE000204600F0D9FD20684069C0F3801A606C7C
:101EF00000F0080010B9BAF1000F2DD0204600F014
:101F000085FD2068406900F04000402820D100BFD6
:101F100000BF2168143151E8001F21F04000216802
:101F2000143141E80002002AF3D100BFE06B50B148
:101F30007748E16B0865E06BFEF7C0FE88B1E06BA7
:101F4000016D88470DE02046FFF76EFF09E009E0CC
:101F50002046FFF769FF04E02046FFF765FF0020F9
:101F600060647DE7206B012878D105F0100000281F
:101F700074D006F010000028FAD000BF00200090B6
:101F800020680068009020684068009000BF00BF93
:101F90002068406900F04000402860D1E06B006894
:101FA00040681FFA80F8B8F1000F56D0A08D404568
:101FB00053DDA4F82E80E06BC069B0F5807F43D07C
:101FC00000BF00BF21680C3151E8001F21F4807070
:101FD00021680C3141E80002002AF3D100BF00BFA4
:101FE00000BF2168143151E8001F21F00100216871
:101FF000143141E80002002AF3D100BF00BF00BF46
:102000002168143151E8001F21F04000216814318B
:1020100041E80002002AF3D100BF202084F84200EA
:102020000020206300BF00BF21680C3151E8001F71
:1020300021F0100021680C3141E80002002AF3D1A0
:1020400000BFE06BFEF7E4FD02206063A08DE28D2F
:10205000801A81B22046FFF7E6FE01E742E0A08D3C
:10206000E18D401A1FFA80F8E08DD0B3B8F1000F6F
:1020700037D000BF00BF21680C3151E8001F21F4A8
:10208000907021680C3141E80002002AF3D100BFB2
:1020900000BF00BF2168143151E8001F21F001008A
:1020A0002168143141E80002002AF3D100BF20204A
:1020B00084F842000020206300BF00BF21680C317B
:1020C00051E8001F21F0100021680C3141E80002A6
:1020D000002AF3D100BF0220606341462046FFF78B
:1020E000A2FEBDE605F0800030B106F0800018B118
:1020F000204600F065FEB3E605F0400030B106F082
:10210000400018B1204600F0B7FCA9E600BFA7E6E2
:10211000F929000810B504460CB9012010BDA069CA
:1021200000B100E000BF94F8410028B9002084F815
:102130004000204600F02AF8242084F8410020685E
:10214000C06820F400502168C860204600F022FDDD
:102150002068006920F49040216808612068406987
:1021600020F02A00216848612068C06840F40050CF
:102170002168C86000206064202084F8410084F851
:1021800042000020606300BFC8E7000010B586B0C1
:102190000446142101A8FEF7B5F988492068884251
:1021A00075D100BF002000908548006840F40020F1
:1021B000834908600846006800F40020009000BFD2
:1021C00000BF00BF002000907D481038006840F03C
:1021D00004007B49103908600846006800F00400DC
:1021E000009000BF00BF4FF44060019002200290B9
:1021F00000200390032004900820059001A9714855
:10220000FEF706FF704871490860400548600021EC
:102210006E488160C1604FF48061016100214161BD
:102220008161C16101624162FEF77CFE08B1FEF787
:10223000DAFC00BF6548E063846300BF6248303069
:10224000634908604FF00060486040216048816049
:102250000021C1604FF48061016100214161816111
:10226000C16101624162FEF75DFE08B1FEF7BBFC91
:1022700000BF5748A063846300BF002205213420BB
:10228000FFF77EF83420FFF767F895E0FFE7514944
:1022900020688842F9D100BF0020009048480068BB
:1022A00040F48010464908600846006800F4801039
:1022B000009000BF00BF00BF0020009040481038D1
:1022C000006840F004003E49103908600846006884
:1022D00000F00400009000BF00BF00BF002000908D
:1022E0000846006840F0080008600846006800F0F2
:1022F0000800009000BF00BF8814019002200290E7
:1023000000200390032004900820059001A92D4887
:10231000FEF77EFE04200190022002900020039030
:10232000032004900820059001A92B48FEF770FEB9
:102330002548303829490860C005486000212748F1
:102340008160C1604FF48061016100214161816160
:10235000C16101624162FEF7E5FD08B1FEF743FC91
:1023600000BF1E48E063846300BF174878301C49F3
:1023700008604FF0006048604021194881600021EA
:10238000C1604FF480610161002141618161C161DF
:1023900001624162FEF7C6FD08B1FEF724FC00BFF2
:1023A0000F48A063846300BF002205213520FEF79B
:1023B000E7FF3520FEF7D0FF06B010BD004C00400F
:1023C00040380240000802404060024004040020FF
:1023D0006404002000500040000C0240C4040020AF
:1023E000240500207047704700BFFEE708B500BF16
:1023F000002000901648006840F40010144908605E
:102400000846006800F40010009000BF00BF0022E2
:1024100005210B20FEF7B4FF0B20FEF79DFF0022E5
:1024200005210D20FEF7ACFF0D20FEF795FF0022E1
:1024300005210F20FEF7A4FF0F20FEF78DFF0022DD
:1024400005212F20FEF79CFF2F20FEF785FF08BDFA
:102450003038024000B58FB01C220C4908A8FEF7A6
:102460001FF8002108A800F07FFF094908601C221E
:1024700006491C3101A8FEF713F8002101A800F05D
:1024800073FF044908600FB000BD000094450008C8
:10249000040000200000002008B500BF00200090CC
:1024A0001D48006840F080001B490860084600682D
:1024B00000F08000009000BF00BF00BF002000902F
:1024C0000846006840F0010008600846006800F017
:1024D0000100009000BF00BF00BF00200090084630
:1024E000006840F0040008600846006800F004003E
:1024F000009000BF00BF00BF0020009008460068A9
:1025000040F0080008600846006800F008000090ED
:1025100000BF00BF08BD00003038024010B50B48B6
:102520000B4908604FF46130486000210848816021
:10253000C16001610C21416100218161C161FFF72E
:10254000E9FD08B1FEF74FFB10BD0000004C004054
:102550007403002010B50B480B4908604FF461303C
:102560004860002108488160C16001610C2141611F
:1025700000218161C161FFF7CDFD08B1FEF733FB9A
:1025800010BD000000500040BC03002000BFFEE76B
:102590001CB5044655480068401C5449086054481E
:1025A0000168204600F0DEFC28B152480068401C5B
:1025B000504908601CBD2078A5287DD160785A2834
:1025C000FBD120784C49087060784870A0788870FA
:1025D0002079E17800EB01204749A1F80300A079B8
:1025E000617900EB01204449A1F8050094F8380016
:1025F00094F8371000EB01203F49A1F83700002084
:102600006AE000EB40010831625C00EB4001C91D4B
:10261000615C02EB01218AB200EB40033649C91D1F
:1026200019440A8000EB40010931625C00EB400371
:102630003149C91D19448A7000EB40022E49C91D59
:10264000114489780F2946DD00EB40022A49C91D53
:102650001144098800EE101AB8EE400ADFED270A8F
:1026600080EE201A8DED001A00EE100AF8EEC00A76
:102670002349098800EE101AB8EE400A20EE800ABD
:10268000B2EE0E1AC0EE010A1B49B1F8051000EEB9
:10269000101AB8EE400A30EE800ADFED180A80EE1C
:1026A000201A8DED011A1749174A128801EBC20151
:1026B000009A0A60019A00E015E04A601249098810
:1026C000491C114A118011460988B1F57A7F01DB56
:1026D0000021118000BF401C102892DB94F83900C3
:1026E000054981F8390000BF64E7000004010020BB
:1026F00090000020000100201C4C00200000C84277
:102700000E010020564C00201001002000BFFEE703
:1027100000BF012000F017FEFBE700002449254818
:1027200000F07EFBA820FEF725FA00BF224890EDBE
:10273000000AF8EE400A214890ED000AB8EE400A7F
:1027400080EE801A1E4880ED001A4FF4FA521D499F
:102750001D48FDF760FE002018E0B7EE000A10EEFD
:10276000101A194A02EBC002516000EE100AF8EE8E
:10277000C00A9FED161AB7EE000A00EE810A10EEAD
:10278000101A114A02EBC0021160401C0428E4DB5D
:102790000F490D4800F020FD0E48FEF7C5F910EE78
:1027A000104A204601F080FE0B4A03C2BEE700003B
:1027B00091250008BC030020000100200401002036
:1027C00008010020564C0020966B00206666E63E0D
:1027D000D68A0020140100201801002010B500BF87
:1027E000502080F31188BFF34F8FBFF36F8F00BF6E
:1027F00001F098FC18B14FF080500449086000BF08
:10280000002080F3118800BF10BD000004ED00E03F
:1028100000B593B0302107A8FDF774FE142102A87B
:10282000FDF770FE00BF002001902548006840F0D1
:102830008050234908600846006800F080500190ED
:1028400000BF00BF00BF002001901E48006840F498
:1028500080401C4908600846006800F480400190F0
:1028600000BF00BF0220079001200A9010200B90AB
:1028700002200D9000210E9108210F91A8211091A6
:10288000022111910421129107A8FEF72DFF08B132
:10289000FEF7A9F90F200290022003900020049077
:1028A0004FF4A05005904FF480500690052102A8E7
:1028B000FEF7B8FD08B1FEF796F913B000BD0000B1
:1028C00040380240007000400348006840F4700047
:1028D000014908607047000088ED00E010B502482B
:1028E000FFF7DBF910BD00008405002010B5026879
:1028F0002D4B98420ED0B0F1804F0BD02B4B98420D
:1029000008D02B4B984205D02A4B984202D02A4B34
:10291000984203D122F070024B681A43224B98422E
:1029200020D0B0F1804F1DD0204B98421AD0204BC0
:10293000984217D01F4B984214D01F4B984211D089
:102940001E4B98420ED01E4B98420BD01D4B984206
:1029500008D01D4B984205D01C4B984202D01C4B0E
:10296000984203D122F44072CB681A4322F08003CC
:102970004C6943EA040202608B68C3620B6883629D
:10298000094B984202D00C4B984201D10B6903636A
:1029900001234361036903F001031BB1036923F0C1
:1029A0000103036110BD000000000140000400406D
:1029B00000080040000C00400004014000400140BD
:1029C000004401400048014000180040001C004045
:1029D0000020004010B50248FFF728FA10BD0000A3
:1029E0007403002010B50348FEF762F80148FFF7B2
:1029F0001DFA10BDBC03002070B50546AC6B00206D
:102A0000E085E0842046FFF70FFA70BD00BF00BFED
:102A100002680C3252E8002F22F4907102680C32E6
:102A200042E80013002BF3D100BF00BF00BF0268D3
:102A3000143252E8002F22F001010268143242E8F9
:102A40000013002BF3D100BF016B01290ED100BF91
:102A500000BF02680C3252E8002F22F01001026819
:102A60000C3242E80013002BF3D100BF202180F884
:102A7000421000210163704710B504462068C06809
:102A800020F040002168C860202084F841002046E2
:102A9000FFF7A9FC002010BDF8B5044694F84200E9
:102AA000222875D1A068B0F5805F0CD1206950B99B
:102AB0000025A66A20684068C0F308003080A06A3C
:102AC000801CA06215E0A56A0026A068B0F5805FB2
:102AD00003D0A06828B9206918B920684068287018
:102AE00004E02068406800F07F002870A06A401C65
:102AF000A062E08D401E80B2E085002846D12068AB
:102B0000C06820F020002168C8602068C06820F4F8
:102B100080702168C8602068406920F00100216849
:102B20004861202084F8420000206063206B012867
:102B300026D10020206300BF00BF21680C3151E87E
:102B4000001F21F0100021680C3141E80002002A2A
:102B5000F3D100BF2068006800F0100010280AD1EF
:102B600000BF002000902068006800902068406846
:102B7000009000BF00BFA18D2046FFF754F902E08E
:102B80002046FFF72FFC0020F8BD01E00020FBE706
:102B90000220F9E72DE9F84F04462068006920F487
:102BA0004050E1680843216808612169A068084332
:102BB00061690843E169084300902068C06849F2F0
:102BC0000C618843009908432168C8602068406907
:102BD00020F44070A1690843216848617649206863
:102BE000884203D075492068884203D1FEF714FD5E
:102BF000814602E0FEF700FD8146E069B0F5004F36
:102C00006CD102206168A0FB015003461920A9FB8A
:102C1000007001462A463846FDF786FB6421B0FB6A
:102C2000F1F04FEA001A02206168A0FB01510B4647
:102C30001920A9FB00712A463846FDF775FB83462B
:102C400002206168A0FB015003461920A9FB007116
:102C50002A463846FDF768FB6421B0FBF1F000EB33
:102C6000C00101EB0010ABEB8000322101EBC00092
:102C70006421B0FBF1F000F0F8000AEB400A0220FA
:102C80006168A0FB015003461920A9FB00700146B2
:102C90002A463846FDF748FB834602206168A0FBC0
:102CA000015003461920A9FB00712A463846FDF75A
:102CB0003BFB6421B0FBF1F000EBC00101EB001025
:102CC000ABEB8000322101EBC0006421B0FBF1F0DE
:102CD00000F007005044216888606AE004206168C1
:102CE000A0FB015003461920A9FB007001462A46AB
:102CF0003846FDF719FB824604206168A0FB0150AD
:102D000003461920A9FB007001462A463846FDF704
:102D10000BFB6421B0FBF1F000EBC00101EB0010F4
:102D2000AAEB8000322101EB00106421B0FBF1F02E
:102D300000F0F00A04206168A0FB0170034619202E
:102D4000A9FB00513A462846FDF7EEFA6421B0FB94
:102D5000F1F00AEB001A04206168A0FB01510B4658
:102D60001920A9FB00712A463846FDF7DDFA834693
:102D700004206168A0FB015003461920A9FB0070E4
:102D800001462A463846FDF7CFFA6421B0FBF1F040
:102D900000EBC00101EB0010ABEB8000322101EB36
:102DA00000106421B0FBF1F000F00F0050442168E6
:102DB0008860BDE8F88F0000001001400014014059
:102DC000014691F84100212828D18868B0F5805F3C
:102DD0000BD1086948B90A6A1088C0F308000B686B
:102DE0005860086A801C086205E00B6A581C08627B
:102DF00018780B685860C88C401E80B2C88458B9D7
:102E00000868C06820F080000B68D8600868C06857
:102E100040F040000B68D860002070470220FCE7BB
:102E200038B504460D4600BF0020009020680068B9
:102E3000009020684068009000BF00BF2068C06814
:102E400040F010002168C8602068406940F04000F0
:102E5000216848613049206888420BD1C820009021
:102E60002268111D2D4BA3F1C802E06BFDF7D0FBCA
:102E70002B4805602B49206888420BD1C820009060
:102E80002268111D284BA3F1C802E06BFDF7C0FBBF
:102E9000264805602649206888420BD1C82000904A
:102EA0002268111D234BA3F1C802E06BFDF7B0FBB4
:102EB000214805602149206888420BD1C820009034
:102EC0002268111D1E4BA3F1C802E06BFDF7A0FBA9
:102ED0001C4805601C49206888420BD1C82000901E
:102EE0002268111D194BA3F1C802E06BFDF790FB9E
:102EF000174805601749206888420BD1C820009008
:102F00002268111D144BA3F1C802E06BFDF780FB92
:102F10001248056038BD00000010014084430020C5
:102F2000A00000200044004014450020A400002020
:102F300000480040A4460020A8000020004C0040AB
:102F400034480020AC00002000500040C44900205C
:102F5000B000002000140140544B0020B4000020B9
:102F600000BFFEE770B505460C4600260DB1022CE9
:102F700001D8002070BD611EFF222846FDF736FEF5
:102F80000646601E285CB04201D10120F2E7002015
:102F9000F0E7000002480068C0F30220704700001C
:102FA0000CED00E010B5002804DB0A07130E054AFB
:102FB000135406E00A07140E034A00F00F031B1F08
:102FC000D45410BD00E400E018ED00E02DED020B3C
:102FD000019820F0004001909DED000B02B0704779
:102FE00010B504462068006840F40020216808609D
:102FF0002748006800682749884206D126480068AB
:1030000018B12648244909688847214800680068A3
:103010002349884206D12348006818B12248214933
:10302000096888471A48006800682049884206D124
:103030001F48006818B11F481D490968884714488F
:10304000006800681C49884206D11C48006818B115
:103050001B481A49096888470D48006800681949E3
:10306000884206D11848006818B1184816490968FE
:1030700088470748006800681549884206D1154806
:10308000006818B1144813490968884710BD00004A
:103090009C00002000100140A0000020BC42002045
:1030A00000440040A40000204C44002000480040A0
:1030B000A8000020DC450020004C0040AC000020AF
:1030C0006C47002000500040B0000020FC48002069
:1030D00000140140B40000208C4A002010B50446C2
:1030E0002068006820F400202168086027480068F4
:1030F00000682749884206D12648006818B126484A
:1031000024490968884721480068006823498842A3
:1031100006D12348006818B1224821490968884728
:103120001A48006800682049884206D11F48006894
:1031300018B11F481D49096888471448006800688D
:103140001C49884206D11C48006818B11B481A491E
:10315000096888470D48006800681949884206D107
:103160001848006818B11848164909688847074880
:10317000006800681549884206D11548006818B1F2
:10318000144813490968884710BD00009C000020BE
:1031900000100140A00000208443002000440040B3
:1031A000A40000201445002000480040A800002092
:1031B000A4460020004C0040AC0000203448002011
:1031C00000500040B0000020C4490020001401401D
:1031D000B4000020544B0020F0B52DED048BADF56C
:1031E000357D07460D464FF4347101A8FDF78AF985
:1031F000002653E000244EE007EBC600406800EED6
:10320000100A6000401C00EE900AF8EEE00A30EE72
:10321000600A10EE101A084601F046F941EC190B4D
:10322000B0EE490AF0EE690AFFF7D0FEB0EE408A30
:10323000F0EE608A9FED340B53EC102B51EC180B21
:1032400001F0A2F80ED307EBC600406800EE100AAA
:10325000600000EE900AF8EEE00AB4EE600AF1EECB
:1032600010FA17D101A850F82400401C01A941F818
:10327000240005EBC400006800EE100A07EBC6004E
:10328000006800EE900A30EE200A10EE100A05EBFE
:10329000C4010860641CB42CAEDB761CB6F57A7FE2
:1032A000A8DB002029E0410000EE101AB8EEC00AA9
:1032B00010EE101A05EBC002516001A951F8201060
:1032C00039B99FED130A10EE101A05EBC002116018
:1032D00012E005EBC001096800EE101A01A951F8CF
:1032E000201000EE901AB8EEE01AC0EE010A10EEBF
:1032F000901A05EBC0021160401CB428D3DB0DF519
:10330000357DBDEC048BF0BD000000000000F03FF7
:1033100000000000FDF788FFFFF77AFAFFF7BCF81E
:10332000FFF764F8FFF7FAF8FFF714F9FFF792F8E0
:1033300000F015F800BFFEE701460020842901D007
:10334000CA1C1044704770B5044625460DB1294685
:1033500000E00121084600F0CDFC002070BD10B552
:1033600000F0F6FC002010BD7FB504460D466069F4
:1033700098B1A06988B1B4F90800FFF7DDFF0646EF
:10338000D4E90510CDE9006102902B462269D4E909
:10339000001000F069FE039013E0B4F90800FFF795
:1033A000CBFF064603A8CDE90060238A9AB22B46DC
:1033B000D4E9001000F026FE012802D0002004B05D
:1033C00070BD0398FBE700002DE9F04105460E466D
:1033D0001C4807681C480068001D00F087FB50B9B6
:1033E0001948006890F82C10012088401749096896
:1033F000814316480160681C38B936B1124801682B
:10340000091D134800F0BCFB1AE07C190E48006847
:103410004460BC4207D20C480168091D0D48006891
:1034200000F094FB0CE008480168091D0A48006898
:1034300000F08CFB09480068844201D20748046010
:10344000BDE8F0812C000020180000203000002092
:10345000A8060020200000201C00002048000020BA
:1034600010B5044600F098FB23480068401C224930
:1034700008602248006840B9204804600846006897
:1034800001280DD100F03EF90AE01D48006838B966
:103490001A480068C06AE16A884201D81748046087
:1034A00018480068401C1749086094F82C10012047
:1034B000884015490968084313490860E16A01EB2F
:1034C0008101124A02EB8100211D00F059FB00F03E
:1034D0008DFB0B48006868B108480068C06AE16A63
:1034E000884207D24FF0805009490860BFF34F8FE0
:1034F000BFF36F8F10BD00002800002018000020CF
:10350000340000204400002030000020CC050020C2
:1035100004ED00E010B516E000F03EFB0C48C0687A
:10352000C468201D00F0E2FA0A480068401E0949FC
:10353000086009480068401E0749086000F056FB13
:10354000204600F00BF8044800680028E4D110BDC4
:1035500094060020280000202400002010B5044616
:1035600094F8510030B9206B00F05EFB204600F06B
:103570005BFB1AE094F85100012803D1204600F0CB
:1035800053FB12E094F85100022801D1012000E021
:10359000002050B900BF502080F31188BFF34F8F37
:1035A000BFF36F8F00BF00BFFEE710BD30B54FF413
:1035B0007053174800F007042CB1C01D20F007001D
:1035C000134C041B1B1B0246124C22600024114D9D
:1035D0006C60D018083820F007000F4C20600024E1
:1035E0000D4D2D686C600C4D2D682C601146441AF1
:1035F0004C60094C24680C60084D4C682C60084DE8
:103600004C682C604FF00044064D2C6030BD00002B
:10361000BC060020540000205C0000206400002054
:10362000600000207000002000BFFFF773FF064815
:1036300000680128F9D94FF0805004490860BFF3B1
:103640004F8FBFF36F8FF0E7CC05002004ED00E053
:103650002DE9FF5F81460E469246DDE90E7B109C08
:10366000AAF10100216B01EB800828F0070808F09F
:10367000070008B9012000E0002050B900BF502029
:1036800080F31188BFF34F8FBFF36F8F00BF00BF70
:10369000FEE786B1002507E0715D04F13400415575
:1036A000705D00B902E06D1C102DF5D300BF002144
:1036B0004320015502E0002084F83400072F00D396
:1036C0000627E76267640020A064201D00F03BFA33
:1036D00004F1180000F037FA2461C7F10700A06177
:1036E00064620020E06484F8500049464046039A32
:1036F00000F050F92060BBF1000F01D0CBF8004082
:10370000BDE8FF9F10B5002407E004EB84010F4AD9
:1037100002EB810000F00AFA641C072CF5D30C4878
:1037200000F004FA0B4800F001FA0B4800F0FEF933
:103730000A4800F0FBF90A4800F0F8F90448094982
:10374000086004480849086010BD0000CC0500204E
:10375000580600206C0600208006002094060020F9
:10376000A80600201C0000202000002010B5014603
:10377000164800E0006803688B42FBD302464368AA
:1037800013448B4204D143684C6823444360014690
:103790000A464B6813440468A34211D10C4C0368D9
:1037A0002468A34208D04B680468646823444B60D3
:1037B00003681B680B6005E0054B1B680B6001E0AC
:1037C00003680B60884200D0016010BD54000020E7
:1037D0005C0000200A490968096809B9012100E074
:1037E000002121B14FF0FF31064A116006E0044983
:1037F0000968C968C868034A4168116070470000D9
:103800001C000020480000200E480068401C08B939
:10381000012000E0002050B900BF502080F3118843
:10382000BFF34F8FBFF36F8F00BF00BFFEE700BF36
:10383000502080F31188BFF34F8FBFF36F8F00BF0D
:1038400000BFFEE7740000202DE9F04104464FF070
:10385000000800F0D5FA4948006808B9FFF7A6FE4D
:10386000474800682040002870D1D4B1083404F0E3
:103870000700B0B104F00700C0F10800044404F0F0
:10388000070008B9012000E0002050B900BF502017
:1038900080F31188BFF34F8FBFF36F8F00BF00BF5E
:1038A000FEE7002C52D03748006884424ED8364E8E
:1038B0003046056801E02E462D686868A04202D2B5
:1038C00028680028F7D12D48006885423ED030682E
:1038D00000F10808286830606868001B102819D9B2
:1038E0002F1907F0070008B9012000E0002050B9A7
:1038F00000BF502080F31188BFF34F8FBFF36F8F4D
:1039000000BF00BFFEE76868001B78606C60384647
:10391000FFF72CFF1B4968680968081A19490860F5
:103920000846006819490968884203D215480068AA
:1039300016490860124968680968084368600020F1
:10394000286013480068401C1149086000F08EFC94
:1039500008F0070008B9012000E0002050B900BFBE
:10396000502080F31188BFF34F8FBFF36F8F00BFDC
:1039700000BFFEE74046BDE8F08100005C0000208B
:10398000700000206000002054000020640000202F
:1039900068000020001F4FF080730360001F21F0BB
:1039A00001030360001F054B036014380260001F11
:1039B0006FF00203036020387047000009380008E8
:1039C00038B5044601203B49087000BF0020009034
:1039D00020680068009020684068009000BF00BF29
:1039E000E06B0068006820F00100E16B0968086086
:1039F0003148046031492068884206D1E06B006894
:103A00004068C0F1C8002E4908602E4920688842ED
:103A100006D1E06B00684068C0F1C8002A49086020
:103A20002A492068884206D1E06B00684068C0F1EE
:103A3000C8002749086027492068884206D1E06B02
:103A400000684068C0F1C800234908602349206825
:103A5000884206D1E06B00684068C0F1C800204988
:103A6000086020492068884206D1E06B0068406801
:103A7000C0F1C8001C490860E06B0068006800F4F1
:103A8000002018B1E06B416C884702E0E06BC16B2D
:103A90008847C820E16B09684860E06B00680068EF
:103AA00040F00100E16B09680860002001490870DE
:103AB00038BD0000980000209C000020001001404C
:103AC00080000020004400408400002000480040A6
:103AD00088000020004C00408C0000200050004076
:103AE00090000020001401409400002001460A6963
:103AF000D1E901309860D1E90103586050688842EB
:103B000001D188685060002008611068401E106074
:103B100010687047034B0360034B0B6080231360F6
:103B200070470000200100207401002000F108010E
:103B300041604FF0FF31816000F10801C160016117
:103B400000210160704700210161704710B50246F5
:103B50000B685C1C0CB9106907E002F1080000E07A
:103B60004068446824689C42FAD944684C604C68B8
:103B7000A160886041600A611468641C146010BD13
:103B800042684A6093688B609368596091600861ED
:103B900003685B1C0360704700BF502080F31188EE
:103BA000BFF34F8FBFF36F8F00BF0E480068401CFC
:103BB0000C49086008460068012812D10A480068CC
:103BC000C0B208B9012000E0002050B900BF502069
:103BD00080F31188BFF34F8FBFF36F8F00BF00BF1B
:103BE000FEE770477400002004ED00E00D48006817
:103BF00050B900BF502080F31188BFF34F8FBFF33F
:103C00006F8F00BF00BFFEE706480068401E0549F1
:103C100008600846006820B9002080F3118800BFC2
:103C200000BF70477400002070B506463546002E70
:103C300044D0083D2C46224960680968084008B114
:103C4000012000E0002050B900BF502080F311880F
:103C5000BFF34F8FBFF36F8F00BF00BFFEE7206839
:103C600008B9012000E0002050B900BF502080F3C7
:103C70001188BFF34F8FBFF36F8F00BF00BFFEE708
:103C80000F49606809680840C0B12068B0B90C49A4
:103C9000606809688843606000F0B2F809496068AC
:103CA00009680844074908602046FFF75FFD064899
:103CB0000068401C0449086000F0D8FA70BD00009C
:103CC00070000020600000206C00002000204FF0F9
:103CD000E02108618861064800684FF47A71B0FB02
:103CE000F1F0401E4FF0E021486107200861704765
:103CF0001400002070B504460025D4B112480068B5
:103D000008B9012000E0002050B900BF502080F326
:103D10001188BFF34F8FBFF36F8F00BF00BFFEE767
:103D200000F06EF800212046FFF74EFB00F09EFAEF
:103D300005463DB94FF0805004490860BFF34F8FEE
:103D4000BFF36F8F70BD00005000002004ED00E055
:103D500010B586B000200590049003AA04A905A818
:103D6000FFF7D8FE0022DDE904101346CDE900215B
:103D700002901CA11D48039A00F076F91C490860C6
:103D80000846006808B1012400E00024012C15D188
:103D900000BF502080F31188BFF34F8FBFF36F8FA8
:103DA00000BF4FF0FF30134908600120124908603E
:103DB00000201249086000F071F810E0601C08B1A2
:103DC000012000E0002050B900BF502080F311888E
:103DD000BFF34F8FBFF36F8F00BF00BFFEE706B08A
:103DE00010BD000049444C45000000002936000881
:103DF0004C00002048000020340000202C0000204F
:103E000002480068401C01490860704750000020CB
:103E10001D48006818B101201C49086032E00020EC
:103E20001A4908601A480068B0FA80F0C0F11F0112
:103E300001EB8100174A52F8200008B1012000E090
:103E4000002050B900BF502080F31188BFF34F8F7E
:103E5000BFF36F8F00BF00BFFEE701EB81020D4B88
:103E600003EB820042685268426000F10802436836
:103E7000934202D14268526842604268D268064B5F
:103E80001A6000BF70470000500000203C00002076
:103E900030000020CC050020180000201CB552483E
:103EA00000685249884201D0012000E0002050B94A
:103EB00000BF502080F31188BFF34F8FBFF36F8F87
:103EC00000BF00BFFEE7484800684849491E8842D5
:103ED00001D0012000E0002050B900BF502080F345
:103EE0001188BFF34F8FBFF36F8F00BF00BFFEE796
:103EF0003F49084600780190FF200A4610700846A6
:103F0000007800909DF8000000F0F0009DF800207F
:103F1000904201D1012000E0002050B900BF5020A4
:103F200080F31188BFF34F8FBFF36F8F00BF00BFC7
:103F3000FEE79DF8000000F050002E4A10700720A8
:103F40002D4A106009E02C480068401E2A4A106083
:103F50009DF800004006000E00909DF8000000F063
:103F600080008028EFD024480068C0F107000428B2
:103F700001D1012000E0002050B900BF502080F3A3
:103F80001188BFF34F8FBFF36F8F00BF00BFFEE7F5
:103F9000194800680002184A10601046008800F4B2
:103FA000E0601060124A019810700F4820300068DD
:103FB00040F470000C49203108600846006840F069
:103FC00070400860FFF782FE00200C490860FCF793
:103FD0004FF90B48006840F0404009490860FCF781
:103FE00033F900201CBD000000ED00E071C20F415C
:103FF00000E400E0780000207C0000207400002035
:1040000034EF00E02DE9FF4F85B080468946174622
:10401000DDE912ABB800FFF717FC064656B1542095
:10402000FFF712FC04460CB1266304E03046FFF7AC
:10403000FBFD00E000248CB1002084F85100CDE9A4
:1040400000ABCDE902403A4649464046089BFFF79F
:10405000FFFA2046FFF704FA012501E04FF0FF3593
:10406000284609B0BDE8F08F2DE9F04F85B007462E
:10407000884691469A46DDE90EB6109C0EB10120A5
:1040800000E0002050B900BF502080F31188BFF33A
:104090004F8FBFF36F8F00BF00BFFEE70CB1012051
:1040A00000E0002050B900BF502080F31188BFF31A
:1040B0004F8FBFF36F8F00BF00BFFEE75420039008
:1040C0000398542801D1012000E0002050B900BF1E
:1040D000502080F31188BFF34F8FBFF36F8F00BF65
:1040E00000BFFEE700BFB4B1AEB125462C462E633B
:1040F000022085F85100002004A953464A46CDE924
:1041000000B1CDE9025041463846FFF7A1FA2846F2
:10411000FFF7A6F901E000200490049805B0BDE87F
:10412000F08F00002DE9F0414FF00008444800688E
:1041300000287CD143480068451C4248056015BBF7
:1041400041480068006808B9012000E0002050B92B
:1041500000BF502080F31188BFF34F8FBFF36F8FE4
:1041600000BF00BFFEE73848076838480068364996
:1041700008603648076036480068401C34490860CB
:10418000FFF728FB00BF3348006885423CD300BFDF
:104190002D480068006808B9012000E0002020B127
:1041A0004FF0FF302B4908602DE027480068C068B9
:1041B000C4686668B54202D22648066023E0201D26
:1041C000FFF794FCA06A18B104F11800FFF78EFC09
:1041D00094F82C10012088401F49096808431E49A3
:1041E0000860E16A01EB81011C4A02EB8100211D9C
:1041F000FFF7C6FC1A49E06A0968C96A8842C7D352
:104200004FF00108C4E700BF15480068C06A00EB22
:104210008000124951F82000012801D94FF001080F
:104220001048006808B14FF0010805E0FFE70E48AC
:104230000068401C0C4908604046BDE8F081000061
:10424000500000202C0000201C0000202000002036
:10425000400000204800002030000020CC05002055
:10426000180000203C0000203800002070B5002419
:1042700000263648006850B900BF502080F31188EE
:10428000BFF34F8FBFF36F8F00BF00BFFEE7FFF795
:1042900083FC2E480068401E2C49086008460068D0
:1042A00000284FD12A48006800284BD024E0294834
:1042B000C068C46804F11800FFF718FC201DFFF760
:1042C00015FC94F82C100120884023490968084304
:1042D00021490860E16A01EB8101204A02EB81007B
:1042E000211DFFF74DFC1E49E06A0968C96A884232
:1042F00002D301201B4908601648006808B9012054
:1043000000E000200028D2D00CB1FFF763FA164875
:10431000056865B100BFFFF705FF10B10120114925
:1043200008606D1E002DF6D100200F4908600D4871
:10433000006838B1012630070C490860BFF34F8F81
:10434000BFF36F8FFFF752FC304670BD5000002066
:10435000280000208006002030000020CC0500202E
:10436000180000203C0000203800002004ED00E090
:10437000491058BFC1F140415B1058BFC3F14043E1
:104380008B42EFF30080704751EA030C17D41CF501
:10439000801F58BFBCF5801F00F10680994218BFEE
:1043A000704708BF9042704707D711F5801F58BF6C
:1043B00013F5801F19D499427047894270471CF544
:1043C000801F08D5BCF5801FF7D58B4218BF7047FA
:1043D00008BF824270474FF4001C1CEB410F38BFEE
:1043E0001CEB430F01D28B42704770B500F008F808
:1043F000922449004FF000514FF08053FFF7B8BFAF
:104400000EF1020E2EF0030E5EF8046B364205D458
:10441000012A43EB030515F5001F12D8012841EBD3
:10442000010C1CF5001F0CD80ED14FEAD17C15F5FC
:10443000001F0CEB4C0C0CF1020C08BF4CEBD37CB6
:1044400004E04FF0080C01E04FEAD37C0CEB4C0584
:1044500026FA05F606F00706B6F1040C06D20EEBB6
:10446000860CBDE870404CF0010C6047DFE80CF0B2
:10447000090B02024FF000414FF00000A1F50021AE
:1044800070BD19461046012851EB010418BFD4F540
:10449000001484BF002001F0004170BD0808A0F5A1
:1044A00000114FEA3101704743004FEAD30C4FEA45
:1044B0003C0C43401FBF40070CF1605113F0FE4F0E
:1044C00070471CF0006F03D100200CF000417047D2
:1044D0000CF0004343EA507010B540EACC0000F005
:1044E0000EF800BF000000924FEA0001FFF7D6BFB0
:1044F0004FF000414FF00000A1F5002170470EF190
:10450000020E2EF0030E5EF8044B244204D44FEA50
:104510004102B2F17F4F11D84FEA4003B3F17F4F10
:104520000CD80ED14FEAD07CB2F17F4F0CEB4C0C83
:104530000CF1020C08BF4CEBD17C04E04FF0080CEE
:1045400001E04FEAD17C0CEB4C0324FA03F404F0B5
:104550000704B4F1040C06D20EEB840CBDE8104045
:104560004CF0010C6047DFE80CF0070802024FF046
:104570000040A0F5800010BD0846420018BFD2F1EF
:10458000807288BF00F0004010BD4FF04070E1EE37
:10459000100A7047FC4600081127000800000000C0
:1045A000000000008000000000000000000000008B
:1045B000F04600081D270008010000000000000070
:1045C00000080000000000000000000000061016B7
:1045D00000061016000000000000000001020304A5
:1045E000060708090000000001020304FF005EBC8A
:1045F000E2613FDD83C29C7E20A3FD1F419DC3215C
:104600007FFCA2401E5F01E3BD3E6082DC237D9FF4
:10461000C1421CFEA0E1BF5D0380DE3C62BEE00241
:104620005CDF81633D7C22C09E1D43A1FF4618FADA
:10463000A427799BC584DA3866E5BB5907DB856713
:1046400039BAE406581947A5FB7826C49A653BD9C0
:1046500087045AB8E6A7F91B45C6987A24F8A644F9
:104660001A99C7257B3A6486D85B05E7B98CD230A6
:104670006EEDB3510F4E10F2AC2F7193CD114FADC3
:10468000F3702ECC92D38D6F31B2EC0E50AFF1138C
:104690004DCE90722C6D33D18F0C52B0EE326C8EA9
:1046A000D0530DEFB1F0AE4C1291CF2D73CA94766A
:1046B00028ABF517490856B4EA6937D58B5709EB8B
:1046C000B536688AD495CB2977F4AA4816E9B75548
:1046D0000B88D6346A2B7597C94A14F6A8742AC871
:1046E00096154BA9F7B6E80A54D7896B3500000038
:1046F000547261636B696E670000000064656661F7
:10470000756C745461736B0028470008000000202A
:1047100020010000C40100084848000820010020D2
:10472000B8950000E0010008000000000000000053
:104730000000000010000000010000000024F40050
:104740000000000000000000000000000000000069
:104750000000000000000000000000000000000059
:104760000000000000000000000000000000000049
:104770000000000000000000000000000000000039
:104780000000000000000000000000000000000029
:10479000000000000000000000000000AAAAAAAA71
:1047A0000000000000000000000000000000000009
:1047B00000000000000000000000000000000000F9
:1047C00000000000000000000000000000000000E9
:1047D00000000000000000000000000000000000D9
:1047E00000000000000000000000000000000000C9
:1047F00000000000000000000000000000000000B9
:1048000000000000000000000000000000000000A8
:104810000000000000000000000000000000000098
:104820000000000000000000000000000000000088
:1048300000000000E329B0040000000000000000B8
:08484000000000000000000070
:040000050800018965
:00000001FF
